:040000006F0010720B
:1000040000000000000000004A0800004C08000046
:10001400000000001E0F00000000000000000000AF
:100024001E0F00001E0F0000000000000000000072
:100034001E0F0000000000001E0F00000000000062
:100044001E0F00001E0F00001E0F00001E0F0000F8
:100054001E0F00001E0F00001E0F00001E0F0000E8
:100064001E0F00001E0F00001E0F00001E0F0000D8
:100074001E0F00001E0F00001E0F00001E0F0000C8
:100084001E0F00001E0F00001E0F00001E0F0000B8
:100094001E0F00001E0F00001E0F00001E0F0000A8
:1000A4001E0F00001E0F00001E0F00001E0F000098
:1000B4001E0F00001E0F00001E0F00001E0F000088
:1000C4001E0F00001E0F00001E0F00001E0F000078
:1000D4001E0F00001E0F00001E0F00001E0F000068
:1000E4001E0F00001E0F00001E0F00001E0F000058
:1000F4001E0F00001E0F00001E0F00001E0F000048
:10010400000000001E0F00001E0F00001E0F000064
:100114001E0F00001E0F00001E0F00001E0F000027
:100124001E0F00001E0F0000F20A00001E0F000048
:100134001E0F00001E0F00001E0F00001E0F000007
:100144001E0F00001E0F00001E0F00001E0F0000F7
:100154001E0F00001E0F00001E0F00001E0F0000E7
:100164001E0F00001E0F00001E0F00001E0F0000D7
:100174001E0F00001E0F00001E0F00001E0F0000C7
:100184001E0F00001E0F00001E0F00001E0F0000B7
:100194001E0F00001E0F00001E0F00001E0F0000A7
:1001A400000000000000000000000000000000004B
:0C01B4000000000000000000000000003F
:1001C000397101436EC619A0397141536AC866CAB4
:1001D00062CC5ECE19A0397101535AD056D252D496
:1001E0004ED64AD826DA22DC06DE3301614082820E
:1001F00041114AC026C222C406C68282B24D4101C4
:10020000024D924C224CB24B4101024B924A224A7F
:10021000B2494101024992442244B24041018280E4
:100220003D432A876373C3029377F700BDEFADE5C3
:10023000937606FF3D8ABA960CC34CC30CC74CC7D5
:100240004107E36BD7FE11E28280B306C3408A0602
:100250009702000096966780A6002307B700A306C2
:10026000B7002306B700A305B7002305B700A30412
:10027000B7002304B700A303B7002303B700A3020A
:10028000B7002302B700A301B7002301B700A30002
:10029000B7002300B700828093F5F50F9396850091
:1002A000D58D93960501D58D61B79396270097025A
:1002B000000096968682E78086FA9680C1171D8F89
:1002C0003E96E374C3F8A5B7EFF21FF04111AA8B75
:1002D000130500032E8C32C636C493992B00EF40D1
:1002E00000722A844E85EF408071131A2C0048C09A
:1002F000AA845285EF40A07008C82A895285EF4031
:10030000007048CC2A8B4E85EF40606FA246324683
:10031000AA8A48D0814763CF8703814763C27705A4
:1003200050D481454E862685E53D528681454A85D5
:10033000C53D529B232C240144C4CE9A5299CE949D
:100340002320640323245403232A240104C4228584
:1003500041017DB5139727005A9714C3850765BFE0
:1003600013972700569710C385074DBFEFF2DFE5BF
:100370002E89EF408040B757000003A687C883A6A8
:10038000C7C8375A0000EF20D01B2A844A85AE84A4
:10039000EF40A03E2A86AE862285A685EF20403417
:1003A000EF406048B757000083A507C837540000E6
:1003B000EF307048EF00707BAA85AA84EF30B04719
:1003C000B757000083A5C7C62A8B2685EF30B046F5
:1003D000AA8BAA855A85EF302056832584C7EF3033
:1003E000A0552A89AA85032584C7EF30900BAA89D6
:1003F00003250AC7CA85EF30D00AAA8AA6852685B2
:10040000EF308053A685EF30104383250AC7EF30C5
:10041000D06BCA85EF30F0082A8ADE855A85EF3026
:10042000D06A832584C7EF302051CA85EF3070072A
:10043000AA84D6854E85EF302050CE85EF30C04F50
:10044000832584C72A895285EF30004FA685EF3077
:10045000A04EAA854A85EF30D004AA85032584C71B
:10046000EF303004832684C72A8B894536860945B8
:10047000A13D2A84DA854E85EF30F03BAA8948D425
:10048000DA855685EF30303B032944025C4C232249
:10049000A9002320390123A2470184C322858DB3FB
:1004A000EFF29FD24445032A4502832A8502032B9B
:1004B00085002A84AE8B26899309000063665A055D
:1004C00003298401832AC401832C0402032C4401E0
:1004D0004A8A63ED9A054C545E851109EF30B035B8
:1004E000CE85EF306045232EA9FE232C2401631412
:1004F0002C011C481CCC23A07401910444C4631437
:100500009B005C405CC4EDB98325090003250A000B
:100510001109EF305032AA854E85EF30E041AA89AB
:1005200063142B0103294400110A49BF83250A00E3
:1005300003A50A00110AEF301030AA854E85EF306E
:10054000D058AA8963144C01032A0401910A51B7B7
:10055000EFF27FC8AA8A1305C003B284368B2E8AB5
:10056000EF40E0492A842685EF40C0142A8952854D
:10057000EF40401493070000AA89CA8556851CC025
:10058000EF302072EF40601FB75A000003A68AC800
:1005900083A6CAC8EF20E07AEF40E02848C0CA85A9
:1005A0004E85E93308C4CA854E85C933B3C44403B4
:1005B000B757000083A507C948C44E85EF30B02760
:1005C000CA85EF30006EEF40401B03A68AC883A6A1
:1005D000CAC8EF200077EF400025B757000083A777
:1005E00007CA08C8232A640123220402232C04001A
:1005F000232E04005CD82320040223280402232491
:100600000402232C0402228544D401B1EFF25FBB23
:100610005C4D00510A0601113334F400B387C50064
:100620003EC4B757000003AC87C7B757000083A983
:1006300007CAB757000003AA87C883AAC7C82A8B6E
:10064000AE8436C63ACC134414001D49CE8CA24762
:1006500063E5F4002285056155B683278B020327E5
:10066000CB0285072324FB0263C7E70239CC232A88
:100670009B0383274B02635EF90083270B0203274A
:10068000CB0123220B0285072320FB0263E3E70053
:10069000054423240B0283254B0303258B000935D6
:1006A000AA850325CB00ED3B83270B03B9C3832524
:1006B0004B01EF305018EF30D07942054185931748
:1006C0000501C98F9CC0910459B703270B028327EA
:1006D0004B02854618233306F940B396C600758F42
:1006E000E28611E3CE868507232ADB022322FB0262
:1006F00049B7832B0B002AC85E85EF00103FB24537
:100700002A8D5E85EF304023EF0070364247832507
:100710000B01AA8D3A85EF30101283254B00EF3084
:10072000A021DE85EF3040212ACEEF400005528621
:10073000D6862AC82ECAEF20E0554247D2476357D3
:100740000504F24823201B0183274B01EE853E85DB
:100750003EC8EF30500EEF30D06FC2471305F57F23
:10076000931D0501EA853E85EF30F00CEF30706E89
:10077000E2471305F57F420593DD0D41418595C3A1
:100780004205B3EDAD0023A0B40135BF5286D68635
:100790003A85BE85EF207026EF40E0082320AB00AD
:1007A00065B7C20DF9BFEFF21FA32A89084D2E8449
:1007B000B28419C1EF404025938944004E85EF4033
:1007C0000024ED77938757A51EA193F7F40F3CA162
:1007D00093C7F7FF3CB1232CA90093074500A285DE
:1007E000A29463E895002320A9024E95232EA90028
:1007F00029BC982185078505A38FE7FEDDB7EFF2B9
:100800009F9D1C5D99E3453709B4AA84084D2E8449
:10081000328919C1EF40401F931919004E85EF40EE
:10082000001E88CCA285AA87229963E6250188D07C
:100830004E95C8CCD1BF982189078505238FE7FE47
:100840001347F7FFA38FE7FECDB701A0B707EFBEB1
:1008500037E700E0938707083CC701A0EFF25F99F4
:1008600013054006EF00501775B2EFF2DF9637140C
:100870000140AA84A1491309048093978401E18768
:1008800091454A8563D10706EF00500CC13FA14551
:100890004A85EF00B00BD937A1454A858604FD197A
:1008A000EF00100B93F4F40F553FE39809FC130588
:1008B00004809145EF009009553713050480A14548
:1008C000EF00D008613F914513050480EF007007E9
:1008D000AA84693713050480A145EF007007BD3F66
:1008E00026856FF09F92EF00B0064DB7EFF25F9054
:1008F000371401402A89AE84130504809145EF0026
:10090000F004A14513050480EF005004813F914598
:1009100013050480EF00D0039137A145130504802F
:10092000EF001003253F1305000C813781471DE9B7
:100930004A85253FFD571DE52685053FF9571DE1F1
:10094000914513050480EF00B000A1451305048014
:10095000EF00C07F2137914513050480EF00007F31
:10096000F53D85473E856FF0FF8AEFF27F88EF30D7
:100970007054B7570000AA8603A547CA3166896537
:10098000130606B8938505F4E13623AAA1806FF01B
:100990007F88EFF2FF8541111384418132C62E8694
:1009A000AA850840A93DB7570000324783A687CAE9
:1009B00008400566B7050020130666E793854509DC
:1009C000B13141016FF01F85EFF29F821166B705CB
:1009D0000020374500201306869D938545091305A1
:1009E000C5A6EF4000036FF0FF82EFF27F807971C0
:1009F00085450945EF000076B777004093870742A9
:100A00003EC2B74700209387C7A63EC4C1473EC633
:100A1000856737040240938467E7130700089387CC
:100A200007803ACC3ED01307002089674C0013059D
:100A300004433ACE3ED426C802CA02D202D6852B3F
:100A400005461305044389454D2BA685130504432C
:100A5000752BB7E700E01307004023A4E710094710
:100A60002385E744854513050443B52B45616FF0A5
:100A70006FFAEFF2EFF74111854537050020EF00DF
:100A80002071371501404C009307000313050580C2
:100A90007C8202C6FD23B7172510B77600409387E6
:100AA000570223A0F6409307F07F23A4F64023AA21
:100AB000F640253F41016FF0EFF5371702405C4FDC
:100AC00093E717005CCFB707004005672394070240
:100AD000130777BBDAB70547DAAB13070002DAA3CF
:100AE000DA2713671700DAA79A23136717009AA368
:100AF00082805D7122DE370400102ADC1305042099
:100B000086C696C49AC29EC02EDA32D836D63AD459
:100B10003ED242D046CE72CC76CA7AC87EC6812BEF
:100B200009CD13050420892B3705024081451305A3
:100B300005435529054723A8E1807254B640A642D3
:100B4000164386436255D2554256B25622579257A3
:100B50000258F248624ED24E424FB24F616173006A
:100B60002030EFF24FE74111612491258545114571
:100B70000925B1477C8237140140D1473EC64C005D
:100B80008D47130504803EC4ED29B145130504804B
:100B9000752B1305803EA52D9305F00F0D45B93338
:100BA00085476304F5040965130505718D25856482
:100BB00037040240938464E713040443B7590000E8
:100BC0001389018183270900E5DFFD3BA685228586
:100BD00035292285854523200900312105469305C5
:100BE00090041385C9CA7533E1BF814513055009C7
:100BF000F53981456945DD39E5456D45C53981459D
:100C00007145ED31A9457545D5319305A007794565
:100C1000F13981457D45D939814513050002F93106
:100C2000D94513051002D93181451305A0027D393C
:100C300085451305B0025D3981451305C0027D313C
:100C400091451305D0025D3181451305E0027939E4
:100C500081451305F00259398145130500037931A7
:100C60008145130510035931814513052003BD3912
:100C70008545130530039D39814513054003BD317A
:100C80009145130550039D31814513056003B93922
:100C90008145130570039939814513058003B931E6
:100CA00081451305900399319D451305600A3D392F
:100CB0009305C00F0D451D39B14541450539B14575
:100CC00045452D31930500021305100B05312945CB
:100CD0003D2B81451305100B11391305807F7131B0
:100CE000375500000546930590041305C5CA5531D4
:100CF000E1394133D93365BDB71702409843B70690
:100D0000FFF041111367170098C3D843370602005C
:100D1000758FD8C39843B706F7FEFD16758F98C335
:100D20009843B706FCFFFD16758F98C3D843B706E6
:100D300001FFFD16758FD8C39843B70600ECFD166A
:100D4000758F98C33707FF0098C723A6070202C410
:100D500002C69843C166558F98C3B716024005670F
:100D60009C42F18F3EC6A24785073EC4B24781E749
:100D7000A247E397E7FEB71702409C431397E700AB
:100D80006356070685473EC632478547631EF7040C
:100D9000B7170240D843B706C1FFFD16D8C3D843E2
:100DA000D8C3D84313670740D8C3D843758FD8C377
:100DB000D843C166558FD8C39843B7060001558FF5
:100DC00098C3984393166700E3DD06FED843B71631
:100DD0000240719BD8C3D84313672700D8C321476B
:100DE000DC42B18BE39EE7FE4101828002C669BF0F
:100DF000B7160240D842B70700201146318B9387BF
:100E000007076305C70021466308C70237177A0042
:100E10001307072098C3371702405843118393766E
:100E2000F70037070020130707003697142398436D
:100E30003357D70098C38280D842D4424166498351
:100E40003D8BF18E1306270015CF3D47630FE60259
:100E50004147630FE602454781456313E60041467B
:100E6000A1E23747024003270780418B0DC73717A0
:100E70007A00130707203306C70290C3C9DD9843E1
:100E8000058349BF81454946E1BF85453546C9BF10
:100E900081453D46F1B737173D0013070790E1BF85
:100EA0003715024058559316F700585563DF06046E
:100EB00011833D8B9306170037177A00130707201D
:100EC0003357D70298C35455A182BD8A8DE2954607
:100ED0003307D702058398C3371702405857944306
:100EE0003D8B050733D7E60298C3984369B705459C
:100EF0006394A600E546E9BF3D456396A600D1464A
:100F00003387E602C9BF8906E5BF3D8B930617000C
:100F100037177A00130707203357D702F1B701A01C
:100F20009701002093810195177100201301810D15
:100F3000174500001305C54897F5FF1F9385850CDD
:100F40001386018163FAC5008322050023A05500A2
:100F500011059105E3EAC5FE13850181976500201F
:100F60009385C54E6377B500232005001105E36D19
:100F7000B5FEFD42739002BCAD4273904280B762F1
:100F80000000938282087390023097F2FFFF9382F1
:100F9000A20793E2320073905230EFF0FFD5970230
:100FA0000000938242BC73901234730020301C41C5
:100FB00061773D0794517D8F9C45D58F9449D58F9E
:100FC000D449D58F944DD58FD44DD58FD451D58F4D
:100FD0009455D58FD98F1CC1DC455CC19C411CC583
:100FE000DC415CC582801C4189C593E717001CC1A8
:100FF000828041677917F98FDDBF1C4101C6DD8D05
:101000000CC1828093C5F5FFFD8DDDBF4CC1828090
:101010009317350063DA0700B707024083A707403C
:101020007D8D3335A00082809317250063D707009C
:10103000B707024083A7074DE5B7B70702409C43B7
:10104000C5B79317350063D70700B707024023A23F
:10105000A74082809317250063D70700B707024097
:1010600023AAA74C8280B7070240C8C38280EFF250
:101070002F98793F6FF00F9AEFF28F97D9376FF073
:101080006F999C4513F7070113F8F70001C7D84182
:101090003368E8008E2113F7F50F39C318418146F4
:1010A000854E3D4F930F800293028004214E33966C
:1010B000DE00B3F8C50063111603939826003313BE
:1010C0001F011343F3FF3377E300B318180133E72D
:1010D000E800639FF70550C98506E39AC6FD18C16D
:1010E0001307F00F6375B70454412146854E3D4FF9
:1010F000930F800293028004414EB398CE0033F7E1
:1011000015016392E8021317260001173313EF004D
:101110001343F3FFB376D3003317E800D98E639DF2
:10112000F701232A15010506E319C6FD54C1828083
:10113000E39457FA10C94DB7E39757FE23281501DA
:10114000DDB708456D8D3335A00082800CC98280E3
:101150004CC9828099C5371702405C4B5D8D48CBE6
:101160008280B7170240D84B1345F5FF798DC8CB65
:10117000828099C5371702401C4F5D8D08CF828051
:10118000B7170240984F1345F5FF798D88CF8280BD
:1011900099C5371702405C4F5D8D48CF8280B717E5
:1011A0000240D84F1345F5FF798DC8CF8280B7072D
:1011B000002083A7070737177A0013070720B3D744
:1011C000E70293F7F70F238DF1801307803EB38773
:1011D000E702239CF1808280B7F700E0D843814684
:1011E000799BD8C303C7A1813306A70290CBD4CB88
:1011F00098431367070198C398431367170298C36E
:10120000D843058B75DF9843799B98C38280B7F7E5
:1012100000E0D8438146799BD8C303D78181330648
:10122000A70290CBD4CB98431367070198C3984388
:101230001367170298C3D843058B75DF9843799BD2
:1012400098C38280138741801C43B7760020938621
:1012500086443E95636BD500B78600209386068052
:1012600063E5A60008C33E858280FD57EDBF0111EE
:1012700022CC370400809347F4FF3717493F06CE4E
:10128000E98F130787FD635DF7023707807F63C926
:10129000E700AA85EF306003F24062440561828076
:1012A0002C00392A0D8985476303F5028947B24529
:1012B0006309F50205C522450546EF00D064E9BF84
:1012C000930500008129F240624405618280B245A5
:1012D00022450546EF003063218D7DBF22451D2943
:1012E00065BF22450529218D45BF011122CC370458
:1012F00000809347F4FF3717493F06CEE98F130765
:1013000087FD635CF7023707807F63C9E700AA8522
:10131000EF20B07BF2406244056182802C004D20BA
:101320000D8985476304F5028947B2456309F502D3
:1013300015C12245C526218DF1BF01469305000048
:10134000EF00705CF240624405618280B245224544
:10135000D126C9B722450546EF00F05A65BF2245A0
:101360000546EF00505A218D75B7011193171500EE
:101370003717493F06CE85831307A7FD635AF70247
:101380003707807F63C8E700AA85EF201074F2401A
:10139000056182802C002D2093171500B24522454F
:1013A000898B05461D8EEF00D068F2400561828072
:1013B000054693050000EF00D067F240056182808A
:1013C000397122DC3717493F1314150006DE26DA7F
:1013D0004AD84ED652D456D25AD05ECE62CC058070
:1013E000130787FD6352871237D71640130737BE9E
:1013F000AA89AE84634187069747000093870790C8
:1014000041988C43635EA02AEF20306CB717C93F28
:10141000938707FD2A896306F4101744000013041C
:10142000248E0C40854BEF20506AAA8588C04A85DF
:10143000EF20B0690C40EF205069C8C0F2506254F0
:101440005E85D2544259B259225A925A025BF24BEB
:10145000624C2161828037174943130707F86351B3
:10146000870E3707807F6357E40A135974411309C5
:10147000A9F7931779011D8C2285EF30801DEF307D
:101480006023AA87AA8522853EC2174A0000130A54
:10149000AA88EF20906383250A00EF20D039AA8A1A
:1014A000EF30201BEF300021AA852A84568522C404
:1014B000EF20B06183250A00EF20F037930500008C
:1014C0002AC6EF2030298D4609E9930500002285C0
:1014D000EF205028B336A000850697470000938779
:1014E000E78B09474A86A68548002529AA8BE3D7BA
:1014F00009F49840DC40B7060080358FB58F98C05E
:10150000DCC0B30BA0401DBF9307000088C1DCC145
:10151000814B2DB7AA85EF20505BC8C088C0814B96
:1015200031BF973700009387E77D8C431734000065
:101530001304847D854BEF2050592A890C40E5B572
:10154000EF00F07D973700009387477C8C432A8912
:10155000EF20702E973700009387C7728C43EF20DF
:10156000A03DEF30000FAA8BEF30C014973700007A
:101570009387C7788C43AA8AEF20F02BAA854A85E7
:10158000EF20B05497370000938787778C432A8BDE
:101590005685EF20502AFD472A8AAA855A8563CAB4
:1015A0007705EF2090529387FBFF1397270097371B
:1015B00000009387A776BA979C43137704F02A8993
:1015C000630CF70223A02401CA855A85EF20F04F4F
:1015D000D285EF20904FC8C0E3D209E6B70700805C
:1015E00033C927013D8D23A02401C8C0B30B70412E
:1015F000B1B5EF20904D2A89935779015D8493F717
:10160000F70FB307F4402147E35EF7FA973700007E
:101610009387476F8C435685EF20F0212A89AA854E
:101620005A85EF20904AAA852A8C5A85EF20F049E6
:10163000CA85EF209049973700009387E76C8C4369
:101640002A895685EF20301FCA85EF201048AA85C9
:101650002A8A6285EF2070479357750193F7F70F39
:101660001D8CE5472A8963C5870088C0628BA9BFA6
:10167000973700009387C7698C435685EF20B01BCE
:101680002A84AA856285EF205044AA852A8B628528
:10169000EF20B043A285EF20504397370000938797
:1016A00067678C432A845685EF20F018A285EF20C7
:1016B000D041AA852A8A5A85EF2030412A8919B754
:1016C000EF208027B717C93F938707FD2A89630456
:1016D000F402173400001304A4620C40FD5BEF20F9
:1016E000A025AA8588C04A85EF20303E0C40EF2017
:1016F000A024C8C0A1B3973700009387A7608C438C
:101700001734000013044460FD5BEF20E0222A89B7
:101710000C40F1B7011126CA931415004AC84EC6F1
:1017200006CE22CC52C456C28580B70700322A8921
:10173000AE8963D8F40CEF20D071630E051CCA8506
:101740004A85EF20500F97470000938727978C43D7
:101750002A84EF20500E97470000938767968C43AA
:10176000EF20801DA285EF20100D97470000938782
:1017700067958C43EF207035A285EF20D00B9747FB
:101780000000938767948C43EF20001BA285EF2015
:10179000900A97470000938767938C43EF20F032BD
:1017A000A285EF20500997470000938767928C43EA
:1017B000EF208018A285EF2010082A8A97370000B2
:1017C0009387474C8C432285EF20F006AA84D2856C
:1017D0002285EF2050062A84CE854A85EF20B00569
:1017E000AA852285EF20702EAA852685EF20F02D70
:1017F0009737000093878748AA858843EF20F02C0D
:10180000F5A0AA85EF203003974700009387078B48
:101810008C432A84EF203002974700009387478A41
:101820008C43EF206011A285EF20F0009747000065
:10183000938747898C43EF205029A285EF20A07F12
:1018400097470000938747888C43EF20E00EA285DE
:10185000EF20607E97470000938747878C43EF20F7
:10186000D026A285EF20207D9747000093874786EA
:101870008C43EF20600CA285EF20E07BB7A7993E58
:10188000938797992A8AE3DB97F2B707483F63C8A3
:101890009706973700009387673E8843B70700FF96
:1018A000BE94A685EF207022AA8A973700009387FE
:1018B000673D8C432285EF200078A685EF20F0203D
:1018C000AA84D2852285EF2000772A84CE854A8596
:1018D000EF206076AA852285EF20301FAA85268515
:1018E000EF20B01EAA855685EF20301EF2406244DC
:1018F000D2444249B249224A924A056182809737CE
:1019000000009387277B83AA0700973700009387FF
:10191000A77A844359BF97370000938727368843B7
:10192000F1B72171131827003ADA173700001307AF
:10193000277E2326311B2320611BB689232E711994
:101940004297232E111A232C811A232A911A232815
:10195000211B2324411B2322511B232C8119232AC1
:1019600091192328A1192326B11932DEF1562ACE66
:101970002ED83ED0032B0700938BF9FF6341D66E20
:101980001307D6FF9357F7419D8BBA978D873ECCAF
:1019900085078E073EDC6247E256B3077B013304BE
:1019A00077417257138917000409158F3AC6229997
:1019B00063C20702025A93172400D297130500004E
:1019C000634504008843EF20F04E88C0050491046D
:1019D000E31324FF131C2B00634B0B04F24D1399EC
:1019E0002B001C0913044900131C2B003E995C1AA0
:1019F000041A338A87016E94CA8CEE8A130D000094
:101A000063C10B0283A50C0003A50A00910AF11C17
:101A1000EF206062AA856A85EF1010722A8DE39329
:101A20008AFE23A0A40191041109E39744FD7418D0
:101A300013078CFF369C940036973AD47247139460
:101A40002900B2463A94370700407D173AC421472F
:101A5000158F9307FBFF8A073AD61803BA97DA84E3
:101A6000930A01133ED25ACA139D24001C03EA971D
:101A700083AD07FB63569006A24717370000130794
:101A80006768032B07003389F4000A091737000041
:101A900013078728569993090104032A070011A008
:101AA0003E89DA856E85EF200059EF20903AEF20CD
:101AB0007040D285AA8CEF200058AA856E85EF2051
:101AC000D000EF2010398325090023A0A9006685E6
:101AD000EF109066AA8D9307C9FF9109E3922AFD42
:101AE000324B6E85DA85EF00B03097370000938770
:101AF000A7618C432A89EF200054EF00B02297376A
:101B000000009387A7608C43EF20E052AA854A85A6
:101B1000EF20A07B2A89EF20D033AA89EF209039CB
:101B2000AA854A85EF20607A2A8A635560119387D7
:101B3000F4FF18038A07BA9703A907EC32561D472A
:101B400033076741B356C9403396C6003309C940CD
:101B500023A027ED3359E940B699634B200F930535
:101B600000005285EF20003F631F0516D247138AFD
:101B7000F4FF634FFA00A2479800A6978A07BA9726
:101B800001479443F117558FE39D87FF6310072C9E
:101B9000925783A707EC6396072AA2570547F117C8
:101BA000D4430507EDDE938714003E8BBA94624759
:101BB0003389FB00F24D330AF70022478A070A0AED
:101BC0003A9902570A09B389FA001C093A9A3E99D0
:101BD00062C803250A00EF20F02D2322A90063C06C
:101BE0000B044A8DEE8C130C000021A003250D0080
:101BF000711D83A50C00910CEF20E043AA8562853E
:101C0000EF1090532A8CE3938CFE23A08901050BDF
:101C1000110A91091109E3DE64FB424CB1B5130CC2
:101C2000000023A08901050B110A91091109E3D2D3
:101C300064FBE5B7B247639E071C9387F4FF8A07EE
:101C40001803BA9703A907EC13598940E35920F107
:101C50008509635A9040064B8547631B0B16638EBC
:101C6000F400D400054703AB060093071700910664
:101C700063110B163E87E398F4FE32476353E0028C
:101C800085476302F73C8947631DF7009387F4FF9C
:101C900018038A07BA9703A707EC1377F70323A063
:101CA000E7EC8947E31DF9EA97370000938707FDC2
:101CB0008843D285EF2060612A8AE3020BEA9737D6
:101CC00000009387A7FB8843B245EF007012AA85F6
:101CD0005285EF20805F2A8A930500005285EF200D
:101CE0006027E30505E8E25772575285524BB385EA
:101CF000E740EF00F00F973700009387E70180433C
:101D00002A8AA285EF20C02A634D053A9737000042
:101D10009387473F8C4352851C03B38BA701EF2069
:101D20008031EF201013EF20F018A285AA8AEF204F
:101D30008030AA855285EF204059EF209011138AF8
:101D400014001C0323A0ABEC13142A0056853E9408
:101D5000EF203010B2472320A4ECA1073EC69737EE
:101D600000009387A7F18843B245EF007008AA8A64
:101D7000635F0A105257894763C7E720634FE03615
:101D80001305000001EB63050900B70700803D8DD6
:101D9000C25788C38320C11B0324811B13F579001C
:101DA0008324411B0329011B8329C11A032A811A99
:101DB000832A411A032B011A832BC119032C811981
:101DC000832C4119032D0119832DC118396182809B
:101DD000014714030A07369793060010338B6641B8
:101DE000232067ED63D597028A07180394003E9776
:101DF0003386A601B697032707EC9306F00F11A0D0
:101E000098433387E64098C39107E39BC7FE054B91
:101E1000ADB5973700009387E7E68C430149EF2083
:101E20002019E34E05D285090949E34690E2973728
:101E300000009387A7E48843D285EF2000492A8ACF
:101E400039BB938714003E8BBE8495B31803931758
:101E50002A00BA97324783A707EC524B61173AC65C
:101E600081EF93972400E1179400B697F117D443BC
:101E70007D1A6117E5DE3AC697370000938707E0C1
:101E80008843B245EF00C076AA8AE3450AEE1317ED
:101E90002A001C1AB384E700940097370000938748
:101EA00067263AC4338DE600268483AC070011A070
:101EB0003E8D03250D007114EF20C07FD685EF20E5
:101EC000801748C0E6855685EF20E0169800AA8A5C
:101ED0009307CDFFE31EA7FD930C010EE68A014494
:101EE000634E0B049737000093878721173D00004E
:101EF000130D8D1E268C8843930D0000814B39A055
:101F0000110C6341740303250D00110D83250C0092
:101F1000850BEF204012AA856E85EF10F021AA8D67
:101F2000E3507BFF23A0BA01181A0504910A938796
:101F3000C4FF63009702BE84E3560BFA930D0000C2
:101F400023A0BA01181A0504910A9387C4FFE31469
:101F500097FE5257894763C8E702BA876347E01084
:101F6000224713050000B38BEC0099C325B5BE8B47
:101F700083A50B00EF10501C9387CBFFE3997CFFE8
:101F8000E30809E019B552578D47E315F7E06359A7
:101F90004017931A2A001C03D697930C010E138442
:101FA000CAFF03AB07F6669411A03E84832B04009E
:101FB000DA855E85EF105018AA84AA855E85EF2029
:101FC000C030DA85EF10501748C004C09307C4FF33
:101FD000268BE39C8CFC854763D4471313142A009B
:101FE0001C03BE9A711483AA0AF6B3848C0011A054
:101FF000BE8403AB0400D6855A85EF10F0132A8AFD
:10200000AA855A85EF20602CD685EF10F012C8C043
:1020100023A044019387C4FFD28AE39BFCFC1104F4
:10202000A29C1305000083A50C00F11CEF10D0103A
:10203000E39B94FF8E561E57631F0908C25794C333
:10204000D8C388C781BB9387F4FF18038A07BA9760
:1020500003A707EC1377F70723A0E7EC99B1A14793
:102060003EDC02CC0DBA014B09B9A24713040000B3
:102070002285B38BFC0011A0BE8B83A50B00EF1053
:10208000B00B9387CBFFE3997CFF2A840E55A28582
:10209000EF20A023631B0904C25780C36350400391
:1020A000C41105448C4005049104EF10F008E35B73
:1020B0008AFE63050900B70700803D8DC257C8C37B
:1020C000D1B952851C033384A701EF208058232007
:1020D000A4EC268A55B34256B7070080BD8E3D8FCB
:1020E000A98F14C258C21CC675B1B70700803D8CB9
:1020F000C25780C3E34640FB7DBF1304000079B79D
:102100001305000005BF01119317150022CC4EC620
:1021100052C406CE26CA4AC856C285833707003243
:102120002A84AE89328A63D6E700EF208052A287E4
:1021300049CDA2852285EF101070AA84AA85228538
:10214000EF10706F97370000938747FD8C432A8903
:102150002685EF10506E97370000938767FC8C43FD
:10216000EF20A016A685EF10106D9737000093871B
:1021700067FB8C43EF10407CA685EF10D06B973740
:102180000000938767FA8C43EF202014A685EF1098
:10219000906A97370000938767F98C43EF10C079F6
:1021A000AA8A631E0A02AA852685EF10D06897378F
:1021B00000009387E7F78C43EF202011CA85EF10CA
:1021C0009067A285EF104077AA87F2406244D2441C
:1021D0004249B249224A924A3E8505618280973738
:1021E0000000938727AA8C434E85EF10D0642A8A7B
:1021F000D6854A85EF103064AA855285EF20E00C21
:10220000A685EF105063CE85EF20200C9737000095
:10221000938707F28C43AA844A85EF10D061AA8580
:102220002685EF106071AA852285EF20000AAA8713
:1022300069BF7971B70700804AD013C9F7FF26D26A
:102240004ECE52CC5AC806D622D456CA5EC662C4F6
:102250003379A90037078031AA842E8B328AAA8964
:102260006359E902EF20E03E25E993071A0033E9BC
:102270002701630A092885472684630AFA209737CD
:102280000000938727A28843A685EF1090212A8417
:10229000FDAA37A72C3F1307F713635F2703635685
:1022A0000500B3C4A70033CBB7009737000093876E
:1022B00067E88843A685EF204001973700009387A1
:1022C000A7E72A848843DA85130B0000EF10F07F1C
:1022D000A285EF106066AA84A6852685EF10B0550A
:1022E000AA85AA8AEF1030552A84D6852685EF1054
:1022F000905497370000938767E48C43AA8B22851C
:10230000EF10705397370000938787E38C43EF10EB
:10231000A062A285EF10305297370000938787E2C2
:102320008C43EF106061A285EF10F05097370000EA
:10233000938787E18C43EF102060A285EF10B04FA8
:1023400097370000938787E08C43EF10E05EA2850B
:10235000EF10704E97370000938787DF8C43EF10A4
:10236000A05DD685EF10304D97370000938787DE4C
:102370008C432A8C2285EF10104C973700009387EE
:10238000A7DD8C43EF10405BA285EF10D04A973752
:1023900000009387A7DC8C43EF10005AA285EF1052
:1023A0009049973700009387A7DB8C43EF10C05804
:1023B000A285EF105048973700009387A7DA8C4327
:1023C000EF108057A285EF101047973700009387D2
:1023D000A7D98C43EF104056AA856285EF10C055EF
:1023E000DE85EF105045DA85EF100055D685EF10E9
:1023F0009044DA85EF10405497370000938707D751
:102400008C432A845E85EF101043A285EF10C052E2
:10241000AA85AA8A2685EF102052B7A72C3F93875A
:10242000F7132A8463C2270985476302FA069737A0
:102430000000938727878843A2857D79EF10700677
:1024400033748900AA89A6852285EF101068AA85B1
:102450005685B3743901EF105067A685EF10B03D73
:102460002A89A6852285EF10103D973700009387B3
:10247000E7808C43EF10404CAA854A85EF10C04B93
:10248000CE85EF10503BA685EF10004B2A842285A5
:10249000B250225492540259F249624AD24A424BF3
:1024A000B24B224C456182805285EF20A0202A89C0
:1024B000A2852285EF1030382A8ACA852285EF103E
:1024C000A047AA855285EF10C07DD685EF10F05F3A
:1024D000AA852685EF10705FAA85EF10E045AA85D2
:1024E0004A85EF10905E93D9E9412A8493F9290037
:1024F000054533053541EF20E01BAA852285EF1005
:1025000090332A8469B72685192897270000938776
:10251000E776AA858843EF10C0782A848DBF060528
:1025200005818280011126CA93141500858022CC72
:1025300013D474014AC806CE4EC652C456C2130400
:1025400014F8D9472A8963CB87082A8A634D040483
:10255000B70A80009384FAFFB3D48440B3F7A40091
:10256000AA8985CB97370000938787C08C43EF10EB
:10257000A03C93050000EF10B023635CA0006356FD
:10258000090033D48A40330A240193C9F4FFB3F914
:102590004901F24062444E85D2444249B249224A3E
:1025A000924A0561828097370000938767BC8C430D
:1025B000CA89EF10603893050000EF10701FE35ACE
:1025C000A0FC93090000E35609FCCA89F9D09727BB
:1025D00000009387276D83A9070065BFB707807F39
:1025E000AA89E3E8F4FAAA85EF100035AA8955B75D
:1025F0009317150085832A87B1C7411106C622C4E7
:102600003706807F63F9C702B376C5002E8485EE56
:1026100097370000938707B68C43EF10D021D1770E
:10262000938707CB2A876349F4069357754193F73D
:10263000F70F9D1711A8AA85EF100030B240224471
:10264000410182808280DD83A2979306E00F63CCF4
:10265000F6006349F002A95663D8D704B16793879F
:10266000073563D2870697370000938767B08043AA
:10267000BA852285B128A285EF10F01BB240224412
:1026800041018280B2402244370780807D17798DD6
:10269000DE075D8D41018280973700009387C7ADCB
:1026A0008C43EF10501959BF17370000130707ADBF
:1026B0000C43370780807D17E507DE07798D5D8D38
:1026C000EF107017A5BF973700009387E7AA45B7AB
:1026D000B707008013C7F7FF798DFD8D4D8D828080
:1026E000397193D7450122DC4AD856D22A891394EE
:1026F000C50006DE26DA4ED652D45AD05ECE13F589
:10270000F77F318093DAF501630B05109307F07FB3
:10271000630BF514135AD9010E0433648A00370A87
:102720008000336A4401131B3900930415C001442F
:10273000814B13D846011399C6001378F87FB288ED
:102740001359C90093D9F601630E08089307F07F67
:102750006300F8041357D6010E09336927011308E3
:1027600018C0B70780003367F90093183600B384A8
:1027700004418145BD4733C83A0163E4871A97375E
:1027800000009387E79F0A043E9410403E9602861D
:102790003367C90093841480631207101364240004
:1027A00081488945C1BF1306F07F81470147B207C1
:1027B000F25062545206B1837E08D18FB3E707010D
:1027C000D2544259B259225A925A025BF24B3A857C
:1027D000BE852161828001481306F07FB70708009B
:1027E0000147F1B73367C9004DC7630809304A850F
:1027F00032C4EF20E0192246130755FFF547930630
:1028000085FF998F3319D900B357F60033E72701B5
:10281000B318D60026959304353F8145A1BF336A8E
:10282000240163030A0636C632C46306042A2285DD
:10283000EF2000162246B246AA84130755FF754AB8
:10284000138B84FF330AEA4033146401335A49017D
:10285000336A8A00331B69011305D0C0B304954065
:102860000144814BF9B5336A240163180A002144FD
:10287000014B9304F07F894B6DBD228A4A8B314412
:102880009304F07F8D4B75B51144014B8144854B0A
:102890004DB51364140081488545E9BD13643400C7
:1028A0004A878D45C1BD630A052E8547898F9306EA
:1028B000800363DDF632014681470147CDBDCE86F8
:1028C0008947638DF53A8D47E387F5F0854736886C
:1028D000E383F5FE1385F43FE357A0FC93F77800FC
:1028E0006396072893D638009317770063D80700BC
:1028F000B70700FFFD177D8F138504409307E07F26
:10290000E3C3A7EA1316D70193179700B183336780
:10291000D6001376F57F61BDD6865287DA88DE85CC
:1029200045B763614723630DEA20DA86FD145284BC
:10293000014B9317870013D388013363F300935E31
:102940000301B357D403131F0301135F0F0193D582
:102950000601139E88003374D4033307FF02420438
:10296000C18D63FBE5009A951386F7FF63EE65263C
:1029700063FCE526F9179A95998D33D7D503C206DE
:10298000C182B3F5D5033306EF02C205D58D63FBD3
:10299000C5009A959306F7FF63E6652463F4C524A2
:1029A00079179A95C20741645D8F9307F4FF3375D9
:1029B000F70093580701935F0E01B377FE00B3024F
:1029C000F502B386C540B383F80293D5020133867E
:1029D000AF021E962E963385F80363737600229518
:1029E000C168FD1893550601337616014206B3F807
:1029F0001201AA95469663E6B6126382B6123306B2
:102A0000CB408D8E333BCB00338B66411385F43F37
:102A1000630C6317B358DB0393550601337BDB0369
:102A2000B3061F03420B33EB6501637BDB001A9B8C
:102A30009385F8FF636D6B20637BDB20F9181A9B8D
:102A4000330BDB40B356DB0342064182337BDB03AF
:102A5000330FDF02420B33666601637BE6011A9691
:102A60009385F6FF6367661E6375E61FF9161A966F
:102A7000C208B3E8D8009395080193D20801C18138
:102A8000B38EF5023306E641B385BF0293D60E013D
:102A9000B387F202BE95AE96B38F5F0263F4F60081
:102AA000C167BE9FC165FD1593D70601ED8EC206B5
:102AB000B3FEBE00BE9FF696637FF6091A96938713
:102AC000F8FF6369661A6368F619630FF61BBE8820
:102AD00093E8180011B54A85EF10906B1307550164
:102AE000F145930405022246B246E3DAE5D4130425
:102AF00085FF331A8900014B85B3328532C4EF104C
:102B0000306913075501F146AA87224613050502CD
:102B1000E3D6E6CEE1173317F6008148E5B9E37056
:102B2000CBEE729B3335CB011A95AA961305F7FFAE
:102B30006378D30263E6B6106382D5102A87C1B5E5
:102B4000E3651BDF93551B009316FA0113541A001B
:102B5000CD8E7E0BF9BBE31DF6F7E38F06D6B9BF2A
:102B6000E31ED3FCE378CBFD2A8751BD93F7F80031
:102B70009146E389D7D693B7C8FF9386480093C799
:102B800017008D823E978DB381468547E34CA0FEAA
:102B9000FD58E31C05D0930410C085471385E4411C
:102BA000B316A70033D6F8003395A800D18E33357D
:102BB000A000C98E13F676003357F70001CE93F7C5
:102BC000F60011466388C70093874600B3B6D70066
:102BD0003697BE869317870063D80704054681475A
:102BE0000147F1B636877DBBB28779B3FD46E3D79F
:102BF000F6FA0556098E930600023356C70063881D
:102C0000D7009387E443B317F700B3E8F800B3366F
:102C10001001D18E13F67600814701CE93F7F600AE
:102C200011460147E392C7FA931797001316D7018D
:102C3000B18313D73600518F014695BEE370CBF0B8
:102C4000729B3335CB011A957917AA964DBBAE8886
:102C5000C5BBAE8631BD93171E0033BEC70172934C
:102C60001A96F9183E8EE315F6E7E307DEC693E8F9
:102C700018009DB1BE88E30AF6FF99BD3688130699
:102C8000F07F8147014725B6E367DEFCBE88E3108D
:102C9000DEFE99B113D74501B7071000FD1713D811
:102CA00046011377F77F9308F07F33F3B7002A8E3E
:102CB000F58FFD81B28E1378F87FFD8263081703CC
:102CC000630018030DEBB368A300631408005D8E66
:102CD00029CA638508046388D502054595ED82807D
:102CE000B3E8C700E38008FE795582803365A3000E
:102CF00065FD630CE802631408005D8E79DEE39ED7
:102D0000D5FCE34CE8FC63480701E3E867FC630398
:102D1000F302637FF30081E57D558280F5DE054592
:102D200082800145E39B08FA82805D8E69DA6DBF7F
:102D300001458280E3E3CEFB0145E372DEFBE5F172
:102D4000E1BF39714AD813D945014ED652D456D273
:102D50009399C50006DE22DC26DA5AD05ECE1379BE
:102D6000F97F2A8A93D9C90093DAF501630D090E18
:102D70009307F07F6306F9181354D5018E09B369E0
:102D800034013704800033E48900931435001309BB
:102D900019C08149814B13D74601139AC600137796
:102DA000F77FB285135ACA0013DBF601630B0710D5
:102DB0009307F07F6303F7049357D6010E0A33EAB3
:102DC0004701130717C0B7078000B367FA009315D0
:102DD00036003A99814833C76A01BD463A851308DF
:102DE000190063E83617172600001306663D8A09A6
:102DF000B29983A60900B2968286B367CA00130906
:102E0000F97F6399071293E9290081458948E1B761
:102E100001479307F07F3704080081443204D2074A
:102E200031807E075D8C598CA285F25062542685D4
:102E30004259D254B259225A925A025BF24B216142
:102E400082805A853E84AE84C68B8947638DFB0E93
:102E50008D47E38FFBFA85472A87639EFB388147BE
:102E60000144814465BF33E4A90061C036C632C461
:102E7000638C092A4E85EF10B0312246B246AA87EC
:102E8000130755FF7544938487FF198CB3999900F4
:102E900033548A0033643401B3149A0013D74601C3
:102EA0001309D0C0139AC6001377F77F3309F9408E
:102EB0008149814BB285135ACA0013DBF601E3192D
:102EC00007EEB367CA00B1C7630F0A22528532C446
:102ED000EF10102C22462A87930655FFF5479305DD
:102EE00087FF958F331ABA00B357F600B3E747014F
:102EF000B315B6003309E9401309D9C08148E1BDD3
:102F000033E4A90001ECA14981441309F07F894B06
:102F100059B593E919008145854875BD4E84AA8449
:102F2000B1491309F07F8D4BBDB5914981440149E9
:102F3000854B95B593E93900D2878D4869BD89479E
:102F40005685E397FBF02A879307F07F014481447D
:102F5000F1B5C16E1386FEFF93D6040113DE0501A1
:102F6000F18CF18D338695023383B60293580601B6
:102F700033059E021A95AA98B382C60363F36800CC
:102F8000F692C16F1383FFFF33F5670093D30701F8
:102F9000B3F76800C207337366003E9333069502A9
:102FA00093D80801B387A602135F0601B384930286
:102FB000BE94FA94B38E760263F3F400FE9E416AE7
:102FC0009307FAFF935F0401B376F400B3F9F400BA
:102FD0007D8EC1803384D502C209338FD401B2996A
:102FE000CE98B307DE02935E0401B385BF02AE97AD
:102FF000BE9E330EFE0363F3BE00529EC1679385EF
:10300000F7FF33F6BE006D8C4206229693DE0E016A
:10301000B305D502769E3385AF0213D40501B3867E
:10302000D302AA96A296B38FF30363F3A600BE9FC2
:1030300041657D15B3F7A600C2076D8DAA97B385CC
:103040005800B3B93501FA97B2953384370133B6D6
:10305000C500B30EC4013385CE0033343401B3B799
:10306000E701C18F33BECE0113D406013336C5004C
:103070003E943366CE009394950032947E94B3E4EC
:103080006400260493567501B3349000DD819317D4
:103090009500CD8C558CDD8C9317740063DB070095
:1030A00093D7140085889316F401DD8CD58C0580A8
:1030B00042899307F93F6359F00893F6740081CE73
:1030C00093F6F40011466388C60093864400B3B4B7
:1030D00096002694B6849316740063D80600B7074A
:1030E00000FFFD177D8C930709409306E07F63CFB7
:1030F000F60E93D634009314D4012604D58C318077
:1031000093F7F77F21BB328532C4EF107008930626
:103110005501F147130705022246E3D1D7DC6115BB
:10312000B317A6008145F9B3EF10900613075501B8
:10313000F145930705022246B246E3D5E5D4611571
:103140003314AA00814499BB85469D8EB1E71309CB
:10315000E941B3972401B3D4D40033192401B33720
:10316000F000B3649900DD8C93F77400B356D4007B
:1031700081CF93F7F40011466388C700938744001A
:10318000B3B49700A696BE849397860063D80704CD
:1031900085470144814459B113068003E341D6CCED
:1031A0007D46E356D6FA0556B307F640930500026E
:1031B0003356F4006387B6001309E943B3172401BB
:1031C000DD8CB3349000D18C93F67400014499CA1D
:1031D00093F7F40011468146E392C7FA13949600E0
:1031E0003180F6068D80D58C81470DB99307F07F2D
:1031F0000144814425B142896DBD370710007D1718
:1032000001113373B70093D84601758F935ED601D1
:1032100022CC26CA0E0393D445019357D5010E073D
:1032200006CE4AC84EC693F8F87F130EF07F33E7F8
:10323000EE0093F4F47F13D4F50133E36700131F1A
:103240003500FD82931E36006380C81993C61600B0
:10325000B38514416305D4126351B018638B081A07
:10326000B70780005D8F6381C4599307800363C4EF
:10327000B734FD4763C5B748930700028D8FB3D9B4
:10328000BE003318F700B39EFE0033683801335791
:10329000B700B339D001336838013303E340B309D1
:1032A0000F41B3373F013306F3409317860063D3D2
:1032B0000724370980007D1933792601630F092C13
:1032C0004A85EF10E06C130785FF93070002998F82
:1032D000B3D7F9003316E900D18FB399E9006344FD
:1032E000972A058F13061700FD4663C5C63A1307D4
:1032F0000002118FB3D6C9003398E9003397E70075
:10330000558F33380001B369070133D6C7008144B4
:1033100093F7790081CF93F6F90091476388F6001F
:103320009386490033B836014296B68993178600D2
:1033300063D6071C138714009307F07F0588630684
:10334000F720B70780FFFD17F18F1398D70193D9A6
:103350003900A60733683801B1831377F77F939656
:10336000C7005207B1827E04D98EC18EF2406244FA
:10337000D2444249B2494285B6850561828063568E
:10338000B00A638A0812B70780005D8F6387C42D77
:103390009307800363C7B718FD4763D2B73C138810
:1033A00005FE93070002B3590701638AF5009307EE
:1033B0000004B385B7403317B700B3EEEE003338DF
:1033C000D0013368380195A2B367D7019385148083
:1033D00099E393C61600630AD404D1E193871400DD
:1033E00093F7E77F6399071EB367E3013368D7015B
:1033F000639204166382073C631608421318350073
:103400009316D3011358380033E80601935733005D
:1034100019A2B367D7016385071A9387F5FF638BFA
:10342000073A638CC523BE8589B56399051C9386CD
:10343000140093F7E67FC1EFB367E30163900436AE
:10344000638D0744B367D701639407460E051318CD
:10345000D3010D813368A800935733006DA8B3855D
:10346000984063970420B367E301638D0730938727
:10347000F5FF638907401305F07F6383A520BE85B0
:103480009307800363C2B72AFD4763C8B73C93071D
:1034900000028D8F3318F3003356BF00B317FF00BF
:1034A0003368C800B339F0003353B30033683801D0
:1034B00033076740B5ACB367D701638307109387C1
:1034C000F5FF638F071E6380C52FBE85D1B59307B7
:1034D000F07F638BF606FA9E33B6EE01B307E30086
:1034E000B2971398F70193DE1E00B369D80113D683
:1034F0001700B68493F77900E39F07E09317D6018E
:1035000013D839003368F800A6859357360013079F
:10351000F07F6380E506B207B18313F7F57F058876
:103520003DBD3367D7013338E000B309E801B3B7D5
:10353000E9013386670093178600E3DD07FA850407
:103540009307F07F639CF41805881307F07F814789
:10355000014831B5639107106301083C1318360028
:103560009317D701135838003368F80036849357FF
:103570003700B367F800E9DB01441307F07FB707B2
:1035800008000148E9BB370680FF7D167D8E93F762
:103590007900998CE39107D895B74E85EF10403F9D
:1035A00013078501FD47E3D2E7D2130685FFB397E2
:1035B000C90081492DB33368D70133380001C5B143
:1035C000131835009317D301135838003368F800E7
:1035D000935733002DBFB309DF413309E34033363E
:1035E0003F013309C9409317890063CA072033E8B4
:1035F0002901E31508CC8147014431BFB3859840C8
:1036000063810414B70680009307F07F3363D3000F
:103610006381F8209307800363CCB722FD4763C919
:10362000B72C930700028D8F3318F300B356BF00F9
:10363000B317FF003368D800B339F0003353B30039
:10364000336838011A97B309D801B3B7D901338663
:10365000E700C684CDB5E31108F2131835009317BF
:10366000D301135838003368F8009357330011B76B
:10367000370580009307F07F3363A300E392F8E0FF
:103680000E061318D7010D823368C8009357370010
:103690003684C5B505179306000233D7E700630AE1
:1036A000D600930600043386C6403396C700B3E9BC
:1036B000C90033383001B369E800014681441DBDBB
:1036C000B309DF01B307E30033BFE9013386E70144
:1036D000931786008544E3DF07E08944B70780FF3E
:1036E000FD17F18F13D7190013F81900336807017C
:1036F0009399F701B3E9090113D6170011B913889B
:1037000005FE93070002B3590701638AF50093078A
:103710000004B385B7403317B700B3EEEE0033387B
:10372000D00133683801A5BE3363E301333860004C
:10373000B3890E41B3B73E013306F740C6843684E1
:10374000ADB6B367E301638707189387F5FF638C12
:10375000071C9306F07F638ED50ABE8565BD93076F
:1037600000028D8FB3D9BE003318F700B39EFE0060
:10377000336838013357B700B339D00133683801A3
:103780003A9365B3131836009317D70113583800CE
:1037900033E8070136849357370095BBBDCB3367B9
:1037A000D701E31B07DC0E051318D3010D81336825
:1037B000A8009357330075BBE30F08E213183600D7
:1037C0009317D701135838003368F800368493579D
:1037D000370091B3B309DF41B307E340333F3F0103
:1037E0003386E7418544D1B4131835009316D301CD
:1037F0001358380033E80601935733009DBBB38953
:10380000EE413306674033B93E0133092641368421
:1038100075B40E061318D7010D823368C80093578C
:10382000370081BBB309DF41B307E34033363F01C3
:103830003386C7409317860063D7070AB389EE41E2
:10384000B3076740B3BE3E013386D7413684C9B45F
:103850003363E30133386000FDB3138805FE93073B
:103860000002B3590301638AF50093070004B3858E
:10387000B7403313B300336F6F003338E001336860
:1038800038017DB5B389EE41B3076740B3BE3E0151
:103890003386D7413684854409BC13183600931704
:1038A000D701135838003368F80093573700A5B193
:1038B000B309DF01B307E30033BFE9013386E70152
:1038C00093178600E3D807C2B70780FFFD177D8EE8
:1038D00085440DB10E061318D7010D823368C80058
:1038E000935737002DB133E8C900E30608D019B16A
:1038F000138805FE93070002B3590301638AF5009C
:1039000093070004B385B7403313B300336F6F00E0
:103910003338E001336838013DB301441307F07FC9
:10392000B70708002DBCB309DF01B307E300B3BE3E
:10393000D9013386D70169BB4111370780007D1754
:1039400013D8750126C2935475013373A70093F4FD
:10395000F40FB376B7004AC01378F80F1359F50186
:1039600006C622C4FD819A8726854A86131E330027
:10397000939E3600B3880441630AB90E6350100D5C
:10398000630408149307F00F638BF414B707000463
:10399000B3EEFE00ED4763C1172993070002B3871A
:1039A0001741B397FE00B3D81E01B337F000B3E759
:1039B000F800B307FE4013975700635E07183704FB
:1039C00000047D147D8C2285EF00907C6D15B3176B
:1039D000A4006348951A058D13041500130700020F
:1039E000018F3397E7003337E000B3D78700D98FD3
:1039F000814413F7770019C713F7F7009146630363
:103A0000D700910713975700635B071485041307CA
:103A1000F00F4A866383E4169A07A58313F5F40F23
:103A2000B2402244A6079314750113D59700458D23
:103A30007E0692440249518D410182806399080AB1
:103A4000138714001377E70F63170714639004229A
:103A5000630D0E1EE3860EFCB307DE41139757007D
:103A600063500722B387CE412E8961B7635C100B88
:103A7000630E08089307F00F6383F406B70700048A
:103A8000B3EEFE00ED4763C9171F93070002B3872B
:103A90001741B397FE00B3D81E01B337F000B3E768
:103AA000F800F297139757006357070A8504130726
:103AB000F00F6384E40CB706007E13D71700FD16E1
:103AC000858B758FD98F35B7638D0E08FD18B307B9
:103AD000DE41E38208EE9307F00FE39DF4EA630D05
:103AE000030801461305F00FB707400015BF330761
:103AF0009840EDE863020E147D17630807189307DA
:103B0000F00F6319F80E2E893683D1BF638B0E0434
:103B1000FD18B307DE01E38708F89307F00FE3937E
:103B2000F4F675BF63950808850413F7E40F631373
:103B3000071263170510630F0E14E3830EEEB3072D
:103B4000DE0113975700814463570700370700FCD5
:103B50007D17F98F854413F77700E31F07E813D328
:103B600037009307F00FE38CF4F693179300A583C7
:103B700013F5F40F4A866DB54A861305F00F814799
:103B800045B5370700FC7D17F98F13F77700898C4F
:103B9000E31407E6E9B73304DE419317540063C327
:103BA000070CE31204E201460145814795BD330746
:103BB0009840ADC49307F00FE308F8F4B70700048A
:103BC000336EFE00ED4763CCE70C93070002998F3C
:103BD000B317FE003357EE00B337F000D98FF697D6
:103BE000C284C9B59307F00FE30FF8F0B7070004DC
:103BF000336EFE00ED4763C3E70893060002998E1B
:103C0000B316DE00B357EE003337D000D98FB38739
:103C1000FE40C2842E8945B3854761BB630E0E0604
:103C20007D17B307DE01C284E30E07E69307F00FAA
:103C3000E31AF8F8368365B53683C2842E8915B742
:103C4000E3040EECE38D0EE869BD638D0E022E8653
:103C5000B687F9B39307F00FE381F4F2B307DE01FF
:103C60008583D5BD3384CE412E89B1BBE31C0EFCC8
:103C7000E3890EE62E8949BD854725B5854741BFB5
:103C8000E39B07EC0146814761BBB387CE41C28409
:103C90002E8915B3B68769B33683C284D9B58547F3
:103CA0003DBF3971935775014AD856D25ECE931AEB
:103CB00095001359F50106DE22DC26DA4ED652D4E1
:103CC0005AD093F7F70F93DA9A00CA8B63820712E0
:103CD0001307F00F6384E7128E0A37070004B3EA74
:103CE000EA00138A17F80144014B93D775019394A6
:103CF000950093F7F70FA58093D9F501FDC713073A
:103D0000F00F6387E7028E04938717F837070004E4
:103D1000D98C330AFA408146558C171700001307D7
:103D2000274E0A043A941C4033493901BA978287D6
:103D3000130A1AF0F9E88946558C17170000130783
:103D400027500A043A941C4033493901BA978287B4
:103D500001491307F00FB707400013959700F25081
:103D600062549317770125817E095D8D33652501A6
:103D7000D2544259B259225A925A025BF24B2161F3
:103D800082801307F00F8147C9BFA68ACE8B368B7E
:103D90008947630BFB1A8D47E30CFBFA8547630ADF
:103DA000FB0A1307FA0713F91B006357E01293F796
:103DB0007A0099C793F7FA0091466383D700910A76
:103DC00093974A0063D90700B70700F8FD17B3FAC5
:103DD000FA0013070A089307E00FE3C4E7FA939782
:103DE0006A00A5831377F70F8DBFB9E48546A9B79D
:103DF00063940A021144014A054BC5BD63990A0048
:103E00002144130AF00F094BCDB58D4631B731442B
:103E1000130AF00F0D4BD1BD56852EC6EF0050375B
:103E20009307B5FFB39AFA009307A0F8338AA74027
:103E30000144014BB24555BD2685EF00703513078F
:103E4000B5FFB307AA00B394E400138A670781465D
:103E5000E1B513F91B000147814701B7416613958E
:103E600054007D1693570501698E63FA9A0AB3D5FB
:103E7000FA027D1AD68601473388C502B3F6F602E8
:103E8000C206558F637B07012A979386F5FF636807
:103E9000A70A6376070BF9152A9733070741B3562C
:103EA000F7023377F702B38AC6029317070163FB61
:103EB0005701AA971387F6FF63E1A70863FF570727
:103EC000F916AA97C205B38A5741D58DB33A500166
:103ED000B3EA5501CA8BF1B58546998E11C76D4677
:103EE00001478147E34BD6E6130AEA09339A4A01B0
:103EF000B3D7DA00B33A4001B3E7570113F77700BD
:103F000019C713F7F70091466303D700910713977A
:103F10005700634807029A07A58301473DBD93D622
:103F20001A00B3D5F6021397FA0141833388C5020C
:103F3000B1B7CE8B368B814AA1BDBA8661B7B68543
:103F4000A9BF0547814711BD13F91B001307F00FE7
:103F5000814721B593567501B7078000FD1713D629
:103F6000750193F6F60F1308F00FB3F8A700135777
:103F7000F501ED8F1376F60FFD81638406031305BB
:103F8000F00F6304A60205456383C6008280E39FA9
:103F9000F8FE0145E30CB7FE0545EDFA3335100197
:103FA00082800545E38D08FC82800545E9DF82803B
:103FB00093567501B7078000FD1713D6750193F668
:103FC000F60F1308F00FB3F8A7001357F501ED8FA4
:103FD0001376F60FFD8163810603630C06018DE203
:103FE00011E2B1C3638E08026305B70405451DE7FE
:103FF0008280F5D779558280E39E08FE6309D60258
:1040000011E2EDD7E314B7FEE342D6FE63C7C60064
:10401000E3EE17FD0145E3FDF8FC01E77D558280E5
:10402000F5DD054582800145E39208FC8280F9DBDD
:10403000D1B78146E1BF797122D4135475014ECEB8
:1040400052CC9319950006D626D24AD056CA5AC8E1
:104050001374F40F93D99900135AF50169C49307A7
:10406000F00F6308F40E9397390037070004B3E9A3
:10407000E700130414F88144014B13D77501939A98
:1040800095001377F70F93DA9A0013D9F50145CF0E
:104090009307F00F630CF7028E0A130717F8B707A0
:1040A0000004B3EAFA003A94014633452A01BD47B9
:1040B000AA869305140063E29710171700001307F0
:1040C000271C8A04BA949C40BA9782871304F40F81
:1040D00063980A0C93E424000946C1BF0145130705
:1040E000F00FB7074000B2502254A6075E07A58321
:1040F0007E05D98F92540259F249624AD24A424B04
:104100005D8D45618280CA86D689328B894763017D
:10411000FB0A8D47E304FBFC854736856312FB1AD7
:1041200001478147C9B7639E090413D77501939A64
:1041300095001377F70F91440144054B93DA9A00E9
:1041400013D9F50131F7639D0A0093E41400054685
:10415000A9BF63930902A1441304F00F094B31BFB7
:104160005685EF00F0029307B5FF098CB39AFA0069
:104170001304A4F8014615BFB1441304F00F0D4B0E
:10418000EDBD4E852EC6EF00B0009307B5FF1304BA
:10419000A0F8B399F900098C8144014BB245F1BDF7
:1041A00093E434000D4611B78947D286E313FBF63A
:1041B00036851307F00F81473DB741639306F3FF40
:1041C00013D6090193D80A01B3F7D900B3FADA007C
:1041D00033885703B389F80213570801B30A56030B
:1041E000D6994E9733061603637357011A96C16723
:1041F000FD17B376F7003378F800C206C29693999C
:10420000660093570701B3393001E982B2979A07E4
:10421000B3E6D900B3E9D7009397490063D9070003
:1042200013D7190093F71900B369F7002E84130709
:10423000F4076350E00493F7790099C793F7F90006
:1042400091466383D70091099397490063D907008A
:10425000B70700F8FD17B3F9F9001307040893072F
:10426000E00F63CBE70493976900A5831377F70FFB
:104270009DBD8547B386E74011C76D46014781471D
:10428000E343D6E61307E4093397E9003337E00048
:10429000B3D7D900D98F13F7770019C713F7F700F1
:1042A00091466303D700910713975700634C0700AB
:1042B0009A07A583014705BD1307F00F814725B570
:1042C0002E84B5B70547814739BD370780004111B6
:1042D0007D179356750113D87501B377A70093F630
:1042E000F60F935EF5013376B70026C24AC0137805
:1042F000F80F06C622C41303F00F3E8E3689F684EB
:10430000139F3700FD8113153600B3880641630201
:10431000681093C51500638CBE106354100D6310B4
:1043200008106304051EFD18B307AF40638608023A
:104330009307F00F6388F616ED4763C71729130735
:104340000002330717413317E500B3571501333720
:10435000E000D98FB307FF40139757006351071A46
:10436000370400047D147D8C22851D256D15B3173F
:10437000A400634E251B33052541130415001307C4
:104380000002018F3397E7003337E000B3D787008F
:10439000D98F014913F7770019C713F7F700914632
:1043A0006303D700910713975700635E07149306C2
:1043B00019001307F00F93FE14006386E6169A07A0
:1043C000A58393F6F60FA607B240224413D59700B3
:1043D000DE069397FE01558D924402495D8D4101A1
:1043E00082806392080A138716001377E70F631B16
:1043F00007146394062263020F2071D5B307AF4000
:104400001397570063550722B307E5410149AE846E
:1044100051B7E30005F0638ABE0AE35410FD930729
:10442000F00F6381F608B70700045D8D31B7635E56
:104430001009630108089307F00F6385F606B707B4
:1044400000045D8DED4763C0171F1307000233079B
:1044500017413317E500B35715013337E000D98F03
:10446000FA9713975700635C070805091307F00FC5
:10447000630BE90AB706007E13D71700FD16858B7C
:10448000758FD98F01BF3307D84063950610630D30
:104490000F147D176303071A9307F00F6314F810C6
:1044A000AE84328E630F0E06814E9306F00FB7076F
:1044B000400011BF39C9FD18B307AF00E38308FA04
:1044C0009307F00FE390F6F8F1BF6399080813899A
:1044D00016001377E90F63160712639B0610630338
:1044E0000F16E30205EEB307AF001397570001491B
:1044F00063570700370700FC7D17F98F054913F74D
:104500007700E31C07E813DE37009307F00FE30B97
:10451000F9F893179E00A5839376F90F93FE140084
:104520005DB593FE14009306F00F814769BD370710
:1045300000FC7D17F98F13F777003309A940E31EBC
:1045400007E4D1B73304AF409317540063C3070C9B
:10455000E31C04E0814E81468147B5B53307D8405E
:10456000B5C69307F00FE30EF8F2B7070004336FF8
:10457000FF00ED4763CDE70C93070002998FB31757
:10458000FF003357EF00B337F0005D8FB307A7008C
:104590004289C1BD9307F00FE304F8F0B7070004A8
:1045A000336FFF00ED4763C2E70893070002998F5E
:1045B000B317FF003357EF00B337F000D98FB307BD
:1045C000F5404289AE8449BB854769B3630E0F0647
:1045D0007D17B307AF004289E30507E89307F00FA3
:1045E000E319F8F8328E7DBD328E4289AE8431BF38
:1045F000E3090FEAE30805EA45BD0DCDAE8EB287AB
:10460000D9B39307F00FE300F9F2B307AF00858346
:10461000FDB53304E541AE8481BBE31D0FFCE3052A
:1046200005E8AE84BDBD854725BD854749BF014925
:10463000E39707EC814E814779B3B307E54142899F
:10464000AE8419BBB28741B3328E42897DBD054726
:1046500035BF37068000135775019307F6FF1377B0
:10466000F70F9305E007B3F6A7009357F50163FC36
:10467000E5009305D00963FAE5003705008013458E
:10468000F5FF3E9582800145828093055009D18EC9
:1046900063CDE500130660093307E64033D7E60033
:1046A0003305E040F5F33A8582801307A7F6339788
:1046B000E600FDB7411106C622C426C20DCD9357B0
:1046C000F54133C4A7001D8CAA842285D124930709
:1046D000E0093387A74093076009FD8063CCE702B8
:1046E000A1469377F70F63D5A60061153314A40094
:1046F0002604258021A081448147014426041355C6
:104700009400B2402244DE07FE045D8D458D924444
:10471000410182809307900963DDE7009307B501AB
:104720009546B317F400898E3354D400B337F000A4
:104730005D8C954763D6A7009307B5FF3314F4004B
:10474000B70600FCFD16937774003376D40085C35A
:104750009377F4009145638CB700110693175600C8
:1047600063D707009307F009758E3387A7401314AA
:10477000660025809377F70F51B7135775011377AC
:10478000F70F41119307170022C426C21314950096
:1047900006C693F7E70F25809354F50185C7935715
:1047A0003400130707387604B2075207B183139514
:1047B000F401D98FC98FB240228522449244BE852C
:1047C0004101828005EB39C42285D922A94763C6FD
:1047D000A7042D47098F930755013357E40033147D
:1047E000F4009317C70013079038098FB18313772C
:1047F000F77F5DBF01CC13573400B7070800D98F8E
:10480000B2077604B1831307F07F79BF1307F07FF7
:10481000814759BF0147814741BF130755FF3317F0
:10482000E40001447DBF93D645019397C50093F6FC
:10483000F67FB183138616008E071357D5011376C2
:10484000E67FFD815D8F9318350035CE138806C84D
:104850009307E00F63DD07018147139597009306E7
:10486000F00FDE062581FE05558D4D8D8280635546
:10487000000B931765000E07B337F000D98F93D85C
:10488000D801B3E7170113F777006301071013F797
:10489000F70091466303D7009107370700047D8F27
:1048A00075C7130718001306F00F9376F70FE3058B
:1048B000C7FA9A07A58313959700DE062581FE05A2
:1048C000558D4D8D8280B367170199EE85CF954741
:1048D0009A07A5831395970093F6F60FDE062581B8
:1048E000FE05558D4D8D8280A5DBB70740001395E1
:1048F00097009306F00FDE0681452581FE05558D54
:104900004D8D82808147139597008146DE06258173
:10491000FE05558D4D8D8280A5576348F804F947F3
:1049200037068000B38707417D45598E6351F504F2
:10493000795733070741130500023357E6006388B0
:10494000A700938626CAB316D600B3E8D800B337BB
:104950001001D98F13F77700014815FB1397570003
:104960008546E34807F48146A5B781468DB793860F
:1049700026C83397D8003337E000B316D600B3D833
:10498000F800B367D700B3E7F800E9B7C28689B784
:10499000C167637CF5029307F00F1307000263EB16
:1049A000A700971700009387A791AA97882333053C
:1049B000A740828021819717000093876790AA976C
:1049C000882361473305A7408280B7070001636DE4
:1049D000F5006181971700009387878EAA97882337
:1049E00021473305A74082804181971700009387B4
:1049F000278DAA97882341473305A7408280938754
:104A00008180AA8588438DA293878180AA85884367
:104A100055A8B3C7A5008D8B3307C50081E78D4727
:104A200063EDC700AA87637EE508942185078505A5
:104A3000A38FD7FEE3EBE7FE828093763500AA874B
:104A400089CA942185078505A38FD7FE93F6370081
:104A5000C5BF9376C7FF138606FE63F0C70683A320
:104A6000050083A2450083AF850003AFC50083AE78
:104A7000050103AE450103A3850183A8C501938504
:104A8000450223A0770003A8C5FF23A2570023A453
:104A9000F70123A6E70123A8D70123AAC70123AC66
:104AA000670023AE17019387470223AE07FF75B750
:104AB00090419107910523AEC7FEE3EBD7FEE3E6F5
:104AC000E7F68280CDC183A7C5FF411122C406C687
:104AD00026C21384C5FF63D307003E94AA846922CB
:104AE0009387C1819C4399EB2322040023AE8180EC
:104AF0002244B24026859244410185AA637EF40097
:104B000014403307D4006396E7009843DC4336979C
:104B100018C05CC0E1BFBA87D84319C3E37DE4FE87
:104B200094433386D700631F86001040B29694C327
:104B30003386D700E31EC7FA10435843B29694C396
:104B4000D8C37DB76375C400B1479CC055B710404A
:104B5000B306C4006316D70014435843B29614C07A
:104B600058C0C0C371B78280011126CA9384350032
:104B7000F19806CE22CC4AC84EC6A104B14763F1D3
:104B8000F404B14463E0B4042A89F9289387C1810D
:104B900098433A8431E0938701829C4391E78145B1
:104BA0004A85512823A0A182A6854A856920FD59FE
:104BB00063173507B1472320F9004A857D2029A0D6
:104BC000E3D204FCB1471CC10145F2406244D24427
:104BD0004249B249056182801C40858F63CE07023D
:104BE000AD4663F6F6001CC03E9404C031A05C40A4
:104BF0006312870223AEF1804A8585281305B4002D
:104C00009307440061993307F54061D33A94898F43
:104C10001CC065BF5CC3CDB722874040A5BF13044D
:104C200035007198E30385FCB305A4404A85212033
:104C3000E31D35FB41B7411122C42A842E859737E5
:104C4000002023A3078006C6EFC0CFDFFD576319FE
:104C5000F500972700209387277F9C4391C31CC0B2
:104C6000B24022444101828082808280ECD92E4071
:104C700000000040F304B53F0000803F000000C08A
:104C80000000003F00000000182D4454FB21194093
:104C90000000803ECDCCCC3EDF4F8D976E12F53FAD
:104CA000000080BF0000FA45E6A4533F2041424384
:104CB0004445464748494A4B4C4D4E4F505152533C
:104CC0005455565758595A616263646566676869F6
:104CD0006A6B6C6D6E6F70717273747576777879BC
:104CE0007A30313233343536373839202D203D2073
:104CF0002B5B5D0A00000000800FC93F434435373D
:104D00000044353708A3852E84F9223F00A3852E61
:104D100032318D2400008043000FC93F000F49400D
:104D200000CB9640000FC9400053FB4000CB16411A
:104D300000ED2F41000F49410031624100537B419A
:104D4000003A8A4100CB9641005CA34100EDAF419F
:104D5000007EBC41000FC94100A0D5410031E241B5
:104D600000C2EE410053FB4100F20342003A0A4206
:104D70000083104200CB164200141D42005C234207
:104D800000A5294200ED2F4200363642007E3C420B
:104D900000C74242000F4942A2000000F900000093
:104DA000830000006E0000004E0000004400000080
:104DB0001500000029000000FC0000002700000092
:104DC00057000000D1000000F50000003400000092
:104DD000DD000000C0000000DB00000062000000F9
:104DE00095000000990000003C0000004300000016
:104DF0009000000041000000FE0000005100000093
:104E000063000000AB000000DE000000BB000000FB
:104E1000C500000061000000B70000002400000091
:104E20006E0000003A000000420000004D0000004B
:104E3000D2000000E0000000060000004900000071
:104E40002E000000EA00000009000000D100000070
:104E5000920000001C000000FE0000001D00000089
:104E6000EB0000001C000000B10000002900000061
:104E7000A70000003E000000E800000082000000E3
:104E800035000000F50000002E000000BB0000000F
:104E90004400000084000000E90000009C000000C5
:104EA0007000000026000000B40000005F00000059
:104EB0007E00000041000000390000009100000069
:104EC000D6000000390000008300000053000000FD
:104ED00039000000F40000009C0000008400000085
:104EE0005F0000008B000000BD000000F900000022
:104EF000280000003B0000001F000000F800000038
:104F000097000000FF000000DE0000000500000028
:104F1000980000000F000000EF0000002F000000CC
:104F2000110000008B0000005A0000000A00000081
:104F30006D0000001F0000006D0000003600000042
:104F40007E000000CF00000027000000CB00000022
:104F500009000000B70000004F00000046000000FC
:104F60003F000000660000009E0000005F0000009F
:104F7000EA0000002D00000075000000270000007E
:104F8000BA000000C7000000EB000000E5000000D0
:104F9000F10000007B0000003D0000000700000061
:104FA00039000000F70000008A00000052000000F5
:104FB00092000000EA0000006B000000FB0000000F
:104FC0005F000000B10000001F0000008D00000025
:104FD0005D00000008000000560000000300000013
:104FE0003000000046000000FC0000007B000000D4
:104FF0006B000000AB000000F0000000CF000000DC
:10500000BC000000200000009A000000F400000036
:10501000360000001D000000A9000000E3000000B1
:1050200091000000610000005E000000E60000004A
:105030001B0000000800000065000000990000004F
:10504000850000005F00000014000000A0000000C8
:1050500068000000400000008D000000FF0000001C
:10506000D8000000800000004D0000007300000028
:1050700027000000310000000600000006000000CC
:105080001500000056000000CA0000007300000078
:10509000A8000000C900000060000000E20000005D
:1050A0007B000000C00000008C0000006B000000CE
:1050B0000000383F0000903E4ED747ADF6740F31E8
:1050C0007CF29334010DD037610BB63AABAA2A3D7E
:1050D0000000C93F0000F0390000DA370000A233B9
:1050E0000000842E0000502B0000C2270000D022B8
:1050F0000000C41F0000C61B000044170000C93F89
:105100000000803B0000003E000000410400000061
:105110000700000009000000D3C92E2F342FD7321A
:105120001BEF3836010D50398988083CABAA2A3E5E
:10513000DA0F493F682122338453D9377AC0953832
:10514000B937813948DEBE3A1F37113CD10D5D3D7C
:105150005FAE9BB745F4A338C8261A3A16696B3B75
:10516000A427B33C8988083EABAAAA3ECAF249717B
:105170000000004C6042A20D00000033A6D7FFFFE4
:105180002AD6FFFF3AD7FFFF42D7FFFF3AD7FFFFEC
:105190005AD6FFFF3AD7FFFF42D7FFFF2AD6FFFFBD
:1051A0002AD6FFFF5AD6FFFF42D7FFFF9CD7FFFF4B
:1051B0009CD7FFFF9CD7FFFF5AD6FFFF96DDFFFF6E
:1051C00088DCFFFF88DCFFFF86DCFFFF8EDCFFFF53
:1051D0008EDCFFFF54DCFFFF86DCFFFF8EDCFFFF71
:1051E00054DCFFFF8EDCFFFF86DCFFFF82DDFFFF6C
:1051F00082DDFFFF82DDFFFF54DCFFFF60ECFFFF7D
:1052000086EBFFFF5AECFFFF8EEBFFFF5AECFFFF30
:1052100054EBFFFF5AECFFFF8EEBFFFF86EBFFFF27
:1052200086EBFFFF54EBFFFF8EEBFFFF94EBFFFFDE
:1052300094EBFFFF94EBFFFF54EBFFFF46EBFFFF08
:1052400046EBFFFF1AECFFFFF6ECFFFF1AECFFFF47
:1052500014EBFFFF1AECFFFFF6ECFFFF46EBFFFF3E
:1052600046EBFFFF14EBFFFFF6ECFFFF54EBFFFFF5
:1052700054EBFFFF54EBFFFF14EBFFFF3EEFFFFF8C
:105280008CEEFFFF8CEEFFFF8AEEFFFF90EEFFFF3C
:1052900090EEFFFF60EEFFFF8AEEFFFF90EEFFFF54
:1052A00060EEFFFF90EEFFFF8AEEFFFF2CEFFFFFA7
:1052B0002CEFFFFF2CEFFFFF60EEFFFF000102026B
:1052C000030303030404040404040404050505059E
:1052D000050505050505050505050505060606067A
:1052E000060606060606060606060606060606065E
:1052F000060606060606060606060606070707074A
:10530000070707070707070707070707070707072D
:10531000070707070707070707070707070707071D
:10532000070707070707070707070707070707070D
:1053300007070707070707070707070708080808F9
:1053400008080808080808080808080808080808DD
:1053500008080808080808080808080808080808CD
:1053600008080808080808080808080808080808BD
:1053700008080808080808080808080808080808AD
:10538000080808080808080808080808080808089D
:10539000080808080808080808080808080808088D
:1053A000080808080808080808080808080808087D
:0C53B00008080808080808080808080891
:1053BC0000000000000000000102030406070809B9
:1053CC0000000000000000000000000000000000D1
:1053DC0000000000000000000000000000000000C1
:1053EC0000000000000000000000000000000000B1
:1053FC0000000000000000000000000000000000A1
:10540C000000000000000000000000000000000090
:10541C000000000000000000000000000000000080
:10542C000044950848740020100000200000000083
:00000001FF
